{"contracts/VestingToken.sol":{"VestingToken":{"abi":[{"inputs":[{"internalType":"address","name":"_token","type":"address"},{"internalType":"address","name":"_beneficiary","type":"address"},{"internalType":"uint256","name":"_start","type":"uint256"},{"internalType":"uint256","name":"_cliffDuration","type":"uint256"},{"internalType":"uint256","name":"_duration","type":"uint256"}],"stateMutability":"nonpayable","type":"constructor"},{"anonymous":false,"inputs":[{"indexed":false,"internalType":"address","name":"beneficiary","type":"address"},{"indexed":false,"internalType":"uint256","name":"Tokens","type":"uint256"}],"name":"Tokenreleased","type":"event"},{"inputs":[],"name":"beneficiary","outputs":[{"internalType":"address","name":"","type":"address"}],"stateMutability":"view","type":"function"},{"inputs":[],"name":"cliff","outputs":[{"internalType":"uint256","name":"","type":"uint256"}],"stateMutability":"view","type":"function"},{"inputs":[],"name":"duration","outputs":[{"internalType":"uint256","name":"","type":"uint256"}],"stateMutability":"view","type":"function"},{"inputs":[],"name":"releasableTokens","outputs":[{"internalType":"uint256","name":"","type":"uint256"}],"stateMutability":"view","type":"function"},{"inputs":[],"name":"release","outputs":[],"stateMutability":"nonpayable","type":"function"},{"inputs":[],"name":"released","outputs":[{"internalType":"uint256","name":"","type":"uint256"}],"stateMutability":"view","type":"function"},{"inputs":[],"name":"start","outputs":[{"internalType":"uint256","name":"","type":"uint256"}],"stateMutability":"view","type":"function"},{"inputs":[],"name":"token","outputs":[{"internalType":"contract IERC20","name":"","type":"address"}],"stateMutability":"view","type":"function"},{"inputs":[],"name":"vestedTokens","outputs":[{"internalType":"uint256","name":"","type":"uint256"}],"stateMutability":"view","type":"function"}],"evm":{"bytecode":{"linkReferences":{},"object":"60806040523480156200001157600080fd5b5060405162000c0538038062000c058339818101604052810190620000379190620001fc565b83600160006101000a81548173ffffffffffffffffffffffffffffffffffffffff021916908373ffffffffffffffffffffffffffffffffffffffff160217905550600073ffffffffffffffffffffffffffffffffffffffff168473ffffffffffffffffffffffffffffffffffffffff1603620000ea576040517f08c379a0000000000000000000000000000000000000000000000000000000008152600401620000e190620002e5565b60405180910390fd5b846000806101000a81548173ffffffffffffffffffffffffffffffffffffffff021916908373ffffffffffffffffffffffffffffffffffffffff1602179055508260028190555081836200013f919062000336565b60038190555080600481905550505050505062000371565b600080fd5b600073ffffffffffffffffffffffffffffffffffffffff82169050919050565b600062000189826200015c565b9050919050565b6200019b816200017c565b8114620001a757600080fd5b50565b600081519050620001bb8162000190565b92915050565b6000819050919050565b620001d681620001c1565b8114620001e257600080fd5b50565b600081519050620001f681620001cb565b92915050565b600080600080600060a086880312156200021b576200021a62000157565b5b60006200022b88828901620001aa565b95505060206200023e88828901620001aa565b94505060406200025188828901620001e5565b93505060606200026488828901620001e5565b92505060806200027788828901620001e5565b9150509295509295909350565b600082825260208201905092915050565b7f496e76616c696420616464726573730000000000000000000000000000000000600082015250565b6000620002cd600f8362000284565b9150620002da8262000295565b602082019050919050565b600060208201905081810360008301526200030081620002be565b9050919050565b7f4e487b7100000000000000000000000000000000000000000000000000000000600052601160045260246000fd5b60006200034382620001c1565b91506200035083620001c1565b92508282019050808211156200036b576200036a62000307565b5b92915050565b61088480620003816000396000f3fe608060405234801561001057600080fd5b50600436106100935760003560e01c806372e2f44d1161006657806372e2f44d1461011057806386d1a69f1461012e5780639613252114610138578063be9a655514610156578063fc0c546a1461017457610093565b80630dfee936146100985780630fb5a6b4146100b657806313d033c0146100d457806338af3eed146100f2575b600080fd5b6100a0610192565b6040516100ad91906104bb565b60405180910390f35b6100be61029d565b6040516100cb91906104bb565b60405180910390f35b6100dc6102a3565b6040516100e991906104bb565b60405180910390f35b6100fa6102a9565b6040516101079190610517565b60405180910390f35b6101186102cf565b60405161012591906104bb565b60405180910390f35b6101366102eb565b005b610140610472565b60405161014d91906104bb565b60405180910390f35b61015e610478565b60405161016b91906104bb565b60405180910390f35b61017c61047e565b6040516101899190610591565b60405180910390f35b60008060055460008054906101000a900473ffffffffffffffffffffffffffffffffffffffff1673ffffffffffffffffffffffffffffffffffffffff166370a08231306040518263ffffffff1660e01b81526004016101f19190610517565b602060405180830381865afa15801561020e573d6000803e3d6000fd5b505050506040513d601f19601f8201168201806040525081019061023291906105dd565b61023c9190610639565b9050600042101561025157600091505061029a565b6004546002546102619190610639565b4210610270578091505061029a565b60045460025442610281919061066d565b8261028c91906106a1565b6102969190610712565b9150505b90565b60045481565b60035481565b600160009054906101000a900473ffffffffffffffffffffffffffffffffffffffff1681565b60006005546102dc610192565b6102e6919061066d565b905090565b60006102f56102cf565b90506000811161033a576040517f08c379a0000000000000000000000000000000000000000000000000000000008152600401610331906107a0565b60405180910390fd5b806005600082825461034c9190610639565b9250508190555060008054906101000a900473ffffffffffffffffffffffffffffffffffffffff1673ffffffffffffffffffffffffffffffffffffffff1663a9059cbb600160009054906101000a900473ffffffffffffffffffffffffffffffffffffffff16836040518363ffffffff1660e01b81526004016103d09291906107c0565b6020604051808303816000875af11580156103ef573d6000803e3d6000fd5b505050506040513d601f19601f820116820180604052508101906104139190610821565b507f0eab689afda6ceec5c4bb9b266590008fc5bc0045440a89b95952688c58337a7600160009054906101000a900473ffffffffffffffffffffffffffffffffffffffff16826040516104679291906107c0565b60405180910390a150565b60055481565b60025481565b60008054906101000a900473ffffffffffffffffffffffffffffffffffffffff1681565b6000819050919050565b6104b5816104a2565b82525050565b60006020820190506104d060008301846104ac565b92915050565b600073ffffffffffffffffffffffffffffffffffffffff82169050919050565b6000610501826104d6565b9050919050565b610511816104f6565b82525050565b600060208201905061052c6000830184610508565b92915050565b6000819050919050565b600061055761055261054d846104d6565b610532565b6104d6565b9050919050565b60006105698261053c565b9050919050565b600061057b8261055e565b9050919050565b61058b81610570565b82525050565b60006020820190506105a66000830184610582565b92915050565b600080fd5b6105ba816104a2565b81146105c557600080fd5b50565b6000815190506105d7816105b1565b92915050565b6000602082840312156105f3576105f26105ac565b5b6000610601848285016105c8565b91505092915050565b7f4e487b7100000000000000000000000000000000000000000000000000000000600052601160045260246000fd5b6000610644826104a2565b915061064f836104a2565b92508282019050808211156106675761066661060a565b5b92915050565b6000610678826104a2565b9150610683836104a2565b925082820390508181111561069b5761069a61060a565b5b92915050565b60006106ac826104a2565b91506106b7836104a2565b92508282026106c5816104a2565b915082820484148315176106dc576106db61060a565b5b5092915050565b7f4e487b7100000000000000000000000000000000000000000000000000000000600052601260045260246000fd5b600061071d826104a2565b9150610728836104a2565b925082610738576107376106e3565b5b828204905092915050565b600082825260208201905092915050565b7f4e6f546f6b656e7320746f2072656c6561736500000000000000000000000000600082015250565b600061078a601383610743565b915061079582610754565b602082019050919050565b600060208201905081810360008301526107b98161077d565b9050919050565b60006040820190506107d56000830185610508565b6107e260208301846104ac565b9392505050565b60008115159050919050565b6107fe816107e9565b811461080957600080fd5b50565b60008151905061081b816107f5565b92915050565b600060208284031215610837576108366105ac565b5b60006108458482850161080c565b9150509291505056fea26469706673582212203bac7852d82a259fffe7fccb37fc07febbf882ae579566c831000077e43b867564736f6c63430008140033","opcodes":"PUSH1 0x80 PUSH1 0x40 MSTORE CALLVALUE DUP1 ISZERO PUSH3 0x11 JUMPI PUSH1 0x0 DUP1 REVERT JUMPDEST POP PUSH1 0x40 MLOAD PUSH3 0xC05 CODESIZE SUB DUP1 PUSH3 0xC05 DUP4 CODECOPY DUP2 DUP2 ADD PUSH1 0x40 MSTORE DUP2 ADD SWAP1 PUSH3 0x37 SWAP2 SWAP1 PUSH3 0x1FC JUMP JUMPDEST DUP4 PUSH1 0x1 PUSH1 0x0 PUSH2 0x100 EXP DUP2 SLOAD DUP2 PUSH20 0xFFFFFFFFFFFFFFFFFFFFFFFFFFFFFFFFFFFFFFFF MUL NOT AND SWAP1 DUP4 PUSH20 0xFFFFFFFFFFFFFFFFFFFFFFFFFFFFFFFFFFFFFFFF AND MUL OR SWAP1 SSTORE POP PUSH1 0x0 PUSH20 0xFFFFFFFFFFFFFFFFFFFFFFFFFFFFFFFFFFFFFFFF AND DUP5 PUSH20 0xFFFFFFFFFFFFFFFFFFFFFFFFFFFFFFFFFFFFFFFF AND SUB PUSH3 0xEA JUMPI PUSH1 0x40 MLOAD PUSH32 0x8C379A000000000000000000000000000000000000000000000000000000000 DUP2 MSTORE PUSH1 0x4 ADD PUSH3 0xE1 SWAP1 PUSH3 0x2E5 JUMP JUMPDEST PUSH1 0x40 MLOAD DUP1 SWAP2 SUB SWAP1 REVERT JUMPDEST DUP5 PUSH1 0x0 DUP1 PUSH2 0x100 EXP DUP2 SLOAD DUP2 PUSH20 0xFFFFFFFFFFFFFFFFFFFFFFFFFFFFFFFFFFFFFFFF MUL NOT AND SWAP1 DUP4 PUSH20 0xFFFFFFFFFFFFFFFFFFFFFFFFFFFFFFFFFFFFFFFF AND MUL OR SWAP1 SSTORE POP DUP3 PUSH1 0x2 DUP2 SWAP1 SSTORE POP DUP2 DUP4 PUSH3 0x13F SWAP2 SWAP1 PUSH3 0x336 JUMP JUMPDEST PUSH1 0x3 DUP2 SWAP1 SSTORE POP DUP1 PUSH1 0x4 DUP2 SWAP1 SSTORE POP POP POP POP POP POP PUSH3 0x371 JUMP JUMPDEST PUSH1 0x0 DUP1 REVERT JUMPDEST PUSH1 0x0 PUSH20 0xFFFFFFFFFFFFFFFFFFFFFFFFFFFFFFFFFFFFFFFF DUP3 AND SWAP1 POP SWAP2 SWAP1 POP JUMP JUMPDEST PUSH1 0x0 PUSH3 0x189 DUP3 PUSH3 0x15C JUMP JUMPDEST SWAP1 POP SWAP2 SWAP1 POP JUMP JUMPDEST PUSH3 0x19B DUP2 PUSH3 0x17C JUMP JUMPDEST DUP2 EQ PUSH3 0x1A7 JUMPI PUSH1 0x0 DUP1 REVERT JUMPDEST POP JUMP JUMPDEST PUSH1 0x0 DUP2 MLOAD SWAP1 POP PUSH3 0x1BB DUP2 PUSH3 0x190 JUMP JUMPDEST SWAP3 SWAP2 POP POP JUMP JUMPDEST PUSH1 0x0 DUP2 SWAP1 POP SWAP2 SWAP1 POP JUMP JUMPDEST PUSH3 0x1D6 DUP2 PUSH3 0x1C1 JUMP JUMPDEST DUP2 EQ PUSH3 0x1E2 JUMPI PUSH1 0x0 DUP1 REVERT JUMPDEST POP JUMP JUMPDEST PUSH1 0x0 DUP2 MLOAD SWAP1 POP PUSH3 0x1F6 DUP2 PUSH3 0x1CB JUMP JUMPDEST SWAP3 SWAP2 POP POP JUMP JUMPDEST PUSH1 0x0 DUP1 PUSH1 0x0 DUP1 PUSH1 0x0 PUSH1 0xA0 DUP7 DUP9 SUB SLT ISZERO PUSH3 0x21B JUMPI PUSH3 0x21A PUSH3 0x157 JUMP JUMPDEST JUMPDEST PUSH1 0x0 PUSH3 0x22B DUP9 DUP3 DUP10 ADD PUSH3 0x1AA JUMP JUMPDEST SWAP6 POP POP PUSH1 0x20 PUSH3 0x23E DUP9 DUP3 DUP10 ADD PUSH3 0x1AA JUMP JUMPDEST SWAP5 POP POP PUSH1 0x40 PUSH3 0x251 DUP9 DUP3 DUP10 ADD PUSH3 0x1E5 JUMP JUMPDEST SWAP4 POP POP PUSH1 0x60 PUSH3 0x264 DUP9 DUP3 DUP10 ADD PUSH3 0x1E5 JUMP JUMPDEST SWAP3 POP POP PUSH1 0x80 PUSH3 0x277 DUP9 DUP3 DUP10 ADD PUSH3 0x1E5 JUMP JUMPDEST SWAP2 POP POP SWAP3 SWAP6 POP SWAP3 SWAP6 SWAP1 SWAP4 POP JUMP JUMPDEST PUSH1 0x0 DUP3 DUP3 MSTORE PUSH1 0x20 DUP3 ADD SWAP1 POP SWAP3 SWAP2 POP POP JUMP JUMPDEST PUSH32 0x496E76616C696420616464726573730000000000000000000000000000000000 PUSH1 0x0 DUP3 ADD MSTORE POP JUMP JUMPDEST PUSH1 0x0 PUSH3 0x2CD PUSH1 0xF DUP4 PUSH3 0x284 JUMP JUMPDEST SWAP2 POP PUSH3 0x2DA DUP3 PUSH3 0x295 JUMP JUMPDEST PUSH1 0x20 DUP3 ADD SWAP1 POP SWAP2 SWAP1 POP JUMP JUMPDEST PUSH1 0x0 PUSH1 0x20 DUP3 ADD SWAP1 POP DUP2 DUP2 SUB PUSH1 0x0 DUP4 ADD MSTORE PUSH3 0x300 DUP2 PUSH3 0x2BE JUMP JUMPDEST SWAP1 POP SWAP2 SWAP1 POP JUMP JUMPDEST PUSH32 0x4E487B7100000000000000000000000000000000000000000000000000000000 PUSH1 0x0 MSTORE PUSH1 0x11 PUSH1 0x4 MSTORE PUSH1 0x24 PUSH1 0x0 REVERT JUMPDEST PUSH1 0x0 PUSH3 0x343 DUP3 PUSH3 0x1C1 JUMP JUMPDEST SWAP2 POP PUSH3 0x350 DUP4 PUSH3 0x1C1 JUMP JUMPDEST SWAP3 POP DUP3 DUP3 ADD SWAP1 POP DUP1 DUP3 GT ISZERO PUSH3 0x36B JUMPI PUSH3 0x36A PUSH3 0x307 JUMP JUMPDEST JUMPDEST SWAP3 SWAP2 POP POP JUMP JUMPDEST PUSH2 0x884 DUP1 PUSH3 0x381 PUSH1 0x0 CODECOPY PUSH1 0x0 RETURN INVALID PUSH1 0x80 PUSH1 0x40 MSTORE CALLVALUE DUP1 ISZERO PUSH2 0x10 JUMPI PUSH1 0x0 DUP1 REVERT JUMPDEST POP PUSH1 0x4 CALLDATASIZE LT PUSH2 0x93 JUMPI PUSH1 0x0 CALLDATALOAD PUSH1 0xE0 SHR DUP1 PUSH4 0x72E2F44D GT PUSH2 0x66 JUMPI DUP1 PUSH4 0x72E2F44D EQ PUSH2 0x110 JUMPI DUP1 PUSH4 0x86D1A69F EQ PUSH2 0x12E JUMPI DUP1 PUSH4 0x96132521 EQ PUSH2 0x138 JUMPI DUP1 PUSH4 0xBE9A6555 EQ PUSH2 0x156 JUMPI DUP1 PUSH4 0xFC0C546A EQ PUSH2 0x174 JUMPI PUSH2 0x93 JUMP JUMPDEST DUP1 PUSH4 0xDFEE936 EQ PUSH2 0x98 JUMPI DUP1 PUSH4 0xFB5A6B4 EQ PUSH2 0xB6 JUMPI DUP1 PUSH4 0x13D033C0 EQ PUSH2 0xD4 JUMPI DUP1 PUSH4 0x38AF3EED EQ PUSH2 0xF2 JUMPI JUMPDEST PUSH1 0x0 DUP1 REVERT JUMPDEST PUSH2 0xA0 PUSH2 0x192 JUMP JUMPDEST PUSH1 0x40 MLOAD PUSH2 0xAD SWAP2 SWAP1 PUSH2 0x4BB JUMP JUMPDEST PUSH1 0x40 MLOAD DUP1 SWAP2 SUB SWAP1 RETURN JUMPDEST PUSH2 0xBE PUSH2 0x29D JUMP JUMPDEST PUSH1 0x40 MLOAD PUSH2 0xCB SWAP2 SWAP1 PUSH2 0x4BB JUMP JUMPDEST PUSH1 0x40 MLOAD DUP1 SWAP2 SUB SWAP1 RETURN JUMPDEST PUSH2 0xDC PUSH2 0x2A3 JUMP JUMPDEST PUSH1 0x40 MLOAD PUSH2 0xE9 SWAP2 SWAP1 PUSH2 0x4BB JUMP JUMPDEST PUSH1 0x40 MLOAD DUP1 SWAP2 SUB SWAP1 RETURN JUMPDEST PUSH2 0xFA PUSH2 0x2A9 JUMP JUMPDEST PUSH1 0x40 MLOAD PUSH2 0x107 SWAP2 SWAP1 PUSH2 0x517 JUMP JUMPDEST PUSH1 0x40 MLOAD DUP1 SWAP2 SUB SWAP1 RETURN JUMPDEST PUSH2 0x118 PUSH2 0x2CF JUMP JUMPDEST PUSH1 0x40 MLOAD PUSH2 0x125 SWAP2 SWAP1 PUSH2 0x4BB JUMP JUMPDEST PUSH1 0x40 MLOAD DUP1 SWAP2 SUB SWAP1 RETURN JUMPDEST PUSH2 0x136 PUSH2 0x2EB JUMP JUMPDEST STOP JUMPDEST PUSH2 0x140 PUSH2 0x472 JUMP JUMPDEST PUSH1 0x40 MLOAD PUSH2 0x14D SWAP2 SWAP1 PUSH2 0x4BB JUMP JUMPDEST PUSH1 0x40 MLOAD DUP1 SWAP2 SUB SWAP1 RETURN JUMPDEST PUSH2 0x15E PUSH2 0x478 JUMP JUMPDEST PUSH1 0x40 MLOAD PUSH2 0x16B SWAP2 SWAP1 PUSH2 0x4BB JUMP JUMPDEST PUSH1 0x40 MLOAD DUP1 SWAP2 SUB SWAP1 RETURN JUMPDEST PUSH2 0x17C PUSH2 0x47E JUMP JUMPDEST PUSH1 0x40 MLOAD PUSH2 0x189 SWAP2 SWAP1 PUSH2 0x591 JUMP JUMPDEST PUSH1 0x40 MLOAD DUP1 SWAP2 SUB SWAP1 RETURN JUMPDEST PUSH1 0x0 DUP1 PUSH1 0x5 SLOAD PUSH1 0x0 DUP1 SLOAD SWAP1 PUSH2 0x100 EXP SWAP1 DIV PUSH20 0xFFFFFFFFFFFFFFFFFFFFFFFFFFFFFFFFFFFFFFFF AND PUSH20 0xFFFFFFFFFFFFFFFFFFFFFFFFFFFFFFFFFFFFFFFF AND PUSH4 0x70A08231 ADDRESS PUSH1 0x40 MLOAD DUP3 PUSH4 0xFFFFFFFF AND PUSH1 0xE0 SHL DUP2 MSTORE PUSH1 0x4 ADD PUSH2 0x1F1 SWAP2 SWAP1 PUSH2 0x517 JUMP JUMPDEST PUSH1 0x20 PUSH1 0x40 MLOAD DUP1 DUP4 SUB DUP2 DUP7 GAS STATICCALL ISZERO DUP1 ISZERO PUSH2 0x20E JUMPI RETURNDATASIZE PUSH1 0x0 DUP1 RETURNDATACOPY RETURNDATASIZE PUSH1 0x0 REVERT JUMPDEST POP POP POP POP PUSH1 0x40 MLOAD RETURNDATASIZE PUSH1 0x1F NOT PUSH1 0x1F DUP3 ADD AND DUP3 ADD DUP1 PUSH1 0x40 MSTORE POP DUP2 ADD SWAP1 PUSH2 0x232 SWAP2 SWAP1 PUSH2 0x5DD JUMP JUMPDEST PUSH2 0x23C SWAP2 SWAP1 PUSH2 0x639 JUMP JUMPDEST SWAP1 POP PUSH1 0x0 TIMESTAMP LT ISZERO PUSH2 0x251 JUMPI PUSH1 0x0 SWAP2 POP POP PUSH2 0x29A JUMP JUMPDEST PUSH1 0x4 SLOAD PUSH1 0x2 SLOAD PUSH2 0x261 SWAP2 SWAP1 PUSH2 0x639 JUMP JUMPDEST TIMESTAMP LT PUSH2 0x270 JUMPI DUP1 SWAP2 POP POP PUSH2 0x29A JUMP JUMPDEST PUSH1 0x4 SLOAD PUSH1 0x2 SLOAD TIMESTAMP PUSH2 0x281 SWAP2 SWAP1 PUSH2 0x66D JUMP JUMPDEST DUP3 PUSH2 0x28C SWAP2 SWAP1 PUSH2 0x6A1 JUMP JUMPDEST PUSH2 0x296 SWAP2 SWAP1 PUSH2 0x712 JUMP JUMPDEST SWAP2 POP POP JUMPDEST SWAP1 JUMP JUMPDEST PUSH1 0x4 SLOAD DUP2 JUMP JUMPDEST PUSH1 0x3 SLOAD DUP2 JUMP JUMPDEST PUSH1 0x1 PUSH1 0x0 SWAP1 SLOAD SWAP1 PUSH2 0x100 EXP SWAP1 DIV PUSH20 0xFFFFFFFFFFFFFFFFFFFFFFFFFFFFFFFFFFFFFFFF AND DUP2 JUMP JUMPDEST PUSH1 0x0 PUSH1 0x5 SLOAD PUSH2 0x2DC PUSH2 0x192 JUMP JUMPDEST PUSH2 0x2E6 SWAP2 SWAP1 PUSH2 0x66D JUMP JUMPDEST SWAP1 POP SWAP1 JUMP JUMPDEST PUSH1 0x0 PUSH2 0x2F5 PUSH2 0x2CF JUMP JUMPDEST SWAP1 POP PUSH1 0x0 DUP2 GT PUSH2 0x33A JUMPI PUSH1 0x40 MLOAD PUSH32 0x8C379A000000000000000000000000000000000000000000000000000000000 DUP2 MSTORE PUSH1 0x4 ADD PUSH2 0x331 SWAP1 PUSH2 0x7A0 JUMP JUMPDEST PUSH1 0x40 MLOAD DUP1 SWAP2 SUB SWAP1 REVERT JUMPDEST DUP1 PUSH1 0x5 PUSH1 0x0 DUP3 DUP3 SLOAD PUSH2 0x34C SWAP2 SWAP1 PUSH2 0x639 JUMP JUMPDEST SWAP3 POP POP DUP2 SWAP1 SSTORE POP PUSH1 0x0 DUP1 SLOAD SWAP1 PUSH2 0x100 EXP SWAP1 DIV PUSH20 0xFFFFFFFFFFFFFFFFFFFFFFFFFFFFFFFFFFFFFFFF AND PUSH20 0xFFFFFFFFFFFFFFFFFFFFFFFFFFFFFFFFFFFFFFFF AND PUSH4 0xA9059CBB PUSH1 0x1 PUSH1 0x0 SWAP1 SLOAD SWAP1 PUSH2 0x100 EXP SWAP1 DIV PUSH20 0xFFFFFFFFFFFFFFFFFFFFFFFFFFFFFFFFFFFFFFFF AND DUP4 PUSH1 0x40 MLOAD DUP4 PUSH4 0xFFFFFFFF AND PUSH1 0xE0 SHL DUP2 MSTORE PUSH1 0x4 ADD PUSH2 0x3D0 SWAP3 SWAP2 SWAP1 PUSH2 0x7C0 JUMP JUMPDEST PUSH1 0x20 PUSH1 0x40 MLOAD DUP1 DUP4 SUB DUP2 PUSH1 0x0 DUP8 GAS CALL ISZERO DUP1 ISZERO PUSH2 0x3EF JUMPI RETURNDATASIZE PUSH1 0x0 DUP1 RETURNDATACOPY RETURNDATASIZE PUSH1 0x0 REVERT JUMPDEST POP POP POP POP PUSH1 0x40 MLOAD RETURNDATASIZE PUSH1 0x1F NOT PUSH1 0x1F DUP3 ADD AND DUP3 ADD DUP1 PUSH1 0x40 MSTORE POP DUP2 ADD SWAP1 PUSH2 0x413 SWAP2 SWAP1 PUSH2 0x821 JUMP JUMPDEST POP PUSH32 0xEAB689AFDA6CEEC5C4BB9B266590008FC5BC0045440A89B95952688C58337A7 PUSH1 0x1 PUSH1 0x0 SWAP1 SLOAD SWAP1 PUSH2 0x100 EXP SWAP1 DIV PUSH20 0xFFFFFFFFFFFFFFFFFFFFFFFFFFFFFFFFFFFFFFFF AND DUP3 PUSH1 0x40 MLOAD PUSH2 0x467 SWAP3 SWAP2 SWAP1 PUSH2 0x7C0 JUMP JUMPDEST PUSH1 0x40 MLOAD DUP1 SWAP2 SUB SWAP1 LOG1 POP JUMP JUMPDEST PUSH1 0x5 SLOAD DUP2 JUMP JUMPDEST PUSH1 0x2 SLOAD DUP2 JUMP JUMPDEST PUSH1 0x0 DUP1 SLOAD SWAP1 PUSH2 0x100 EXP SWAP1 DIV PUSH20 0xFFFFFFFFFFFFFFFFFFFFFFFFFFFFFFFFFFFFFFFF AND DUP2 JUMP JUMPDEST PUSH1 0x0 DUP2 SWAP1 POP SWAP2 SWAP1 POP JUMP JUMPDEST PUSH2 0x4B5 DUP2 PUSH2 0x4A2 JUMP JUMPDEST DUP3 MSTORE POP POP JUMP JUMPDEST PUSH1 0x0 PUSH1 0x20 DUP3 ADD SWAP1 POP PUSH2 0x4D0 PUSH1 0x0 DUP4 ADD DUP5 PUSH2 0x4AC JUMP JUMPDEST SWAP3 SWAP2 POP POP JUMP JUMPDEST PUSH1 0x0 PUSH20 0xFFFFFFFFFFFFFFFFFFFFFFFFFFFFFFFFFFFFFFFF DUP3 AND SWAP1 POP SWAP2 SWAP1 POP JUMP JUMPDEST PUSH1 0x0 PUSH2 0x501 DUP3 PUSH2 0x4D6 JUMP JUMPDEST SWAP1 POP SWAP2 SWAP1 POP JUMP JUMPDEST PUSH2 0x511 DUP2 PUSH2 0x4F6 JUMP JUMPDEST DUP3 MSTORE POP POP JUMP JUMPDEST PUSH1 0x0 PUSH1 0x20 DUP3 ADD SWAP1 POP PUSH2 0x52C PUSH1 0x0 DUP4 ADD DUP5 PUSH2 0x508 JUMP JUMPDEST SWAP3 SWAP2 POP POP JUMP JUMPDEST PUSH1 0x0 DUP2 SWAP1 POP SWAP2 SWAP1 POP JUMP JUMPDEST PUSH1 0x0 PUSH2 0x557 PUSH2 0x552 PUSH2 0x54D DUP5 PUSH2 0x4D6 JUMP JUMPDEST PUSH2 0x532 JUMP JUMPDEST PUSH2 0x4D6 JUMP JUMPDEST SWAP1 POP SWAP2 SWAP1 POP JUMP JUMPDEST PUSH1 0x0 PUSH2 0x569 DUP3 PUSH2 0x53C JUMP JUMPDEST SWAP1 POP SWAP2 SWAP1 POP JUMP JUMPDEST PUSH1 0x0 PUSH2 0x57B DUP3 PUSH2 0x55E JUMP JUMPDEST SWAP1 POP SWAP2 SWAP1 POP JUMP JUMPDEST PUSH2 0x58B DUP2 PUSH2 0x570 JUMP JUMPDEST DUP3 MSTORE POP POP JUMP JUMPDEST PUSH1 0x0 PUSH1 0x20 DUP3 ADD SWAP1 POP PUSH2 0x5A6 PUSH1 0x0 DUP4 ADD DUP5 PUSH2 0x582 JUMP JUMPDEST SWAP3 SWAP2 POP POP JUMP JUMPDEST PUSH1 0x0 DUP1 REVERT JUMPDEST PUSH2 0x5BA DUP2 PUSH2 0x4A2 JUMP JUMPDEST DUP2 EQ PUSH2 0x5C5 JUMPI PUSH1 0x0 DUP1 REVERT JUMPDEST POP JUMP JUMPDEST PUSH1 0x0 DUP2 MLOAD SWAP1 POP PUSH2 0x5D7 DUP2 PUSH2 0x5B1 JUMP JUMPDEST SWAP3 SWAP2 POP POP JUMP JUMPDEST PUSH1 0x0 PUSH1 0x20 DUP3 DUP5 SUB SLT ISZERO PUSH2 0x5F3 JUMPI PUSH2 0x5F2 PUSH2 0x5AC JUMP JUMPDEST JUMPDEST PUSH1 0x0 PUSH2 0x601 DUP5 DUP3 DUP6 ADD PUSH2 0x5C8 JUMP JUMPDEST SWAP2 POP POP SWAP3 SWAP2 POP POP JUMP JUMPDEST PUSH32 0x4E487B7100000000000000000000000000000000000000000000000000000000 PUSH1 0x0 MSTORE PUSH1 0x11 PUSH1 0x4 MSTORE PUSH1 0x24 PUSH1 0x0 REVERT JUMPDEST PUSH1 0x0 PUSH2 0x644 DUP3 PUSH2 0x4A2 JUMP JUMPDEST SWAP2 POP PUSH2 0x64F DUP4 PUSH2 0x4A2 JUMP JUMPDEST SWAP3 POP DUP3 DUP3 ADD SWAP1 POP DUP1 DUP3 GT ISZERO PUSH2 0x667 JUMPI PUSH2 0x666 PUSH2 0x60A JUMP JUMPDEST JUMPDEST SWAP3 SWAP2 POP POP JUMP JUMPDEST PUSH1 0x0 PUSH2 0x678 DUP3 PUSH2 0x4A2 JUMP JUMPDEST SWAP2 POP PUSH2 0x683 DUP4 PUSH2 0x4A2 JUMP JUMPDEST SWAP3 POP DUP3 DUP3 SUB SWAP1 POP DUP2 DUP2 GT ISZERO PUSH2 0x69B JUMPI PUSH2 0x69A PUSH2 0x60A JUMP JUMPDEST JUMPDEST SWAP3 SWAP2 POP POP JUMP JUMPDEST PUSH1 0x0 PUSH2 0x6AC DUP3 PUSH2 0x4A2 JUMP JUMPDEST SWAP2 POP PUSH2 0x6B7 DUP4 PUSH2 0x4A2 JUMP JUMPDEST SWAP3 POP DUP3 DUP3 MUL PUSH2 0x6C5 DUP2 PUSH2 0x4A2 JUMP JUMPDEST SWAP2 POP DUP3 DUP3 DIV DUP5 EQ DUP4 ISZERO OR PUSH2 0x6DC JUMPI PUSH2 0x6DB PUSH2 0x60A JUMP JUMPDEST JUMPDEST POP SWAP3 SWAP2 POP POP JUMP JUMPDEST PUSH32 0x4E487B7100000000000000000000000000000000000000000000000000000000 PUSH1 0x0 MSTORE PUSH1 0x12 PUSH1 0x4 MSTORE PUSH1 0x24 PUSH1 0x0 REVERT JUMPDEST PUSH1 0x0 PUSH2 0x71D DUP3 PUSH2 0x4A2 JUMP JUMPDEST SWAP2 POP PUSH2 0x728 DUP4 PUSH2 0x4A2 JUMP JUMPDEST SWAP3 POP DUP3 PUSH2 0x738 JUMPI PUSH2 0x737 PUSH2 0x6E3 JUMP JUMPDEST JUMPDEST DUP3 DUP3 DIV SWAP1 POP SWAP3 SWAP2 POP POP JUMP JUMPDEST PUSH1 0x0 DUP3 DUP3 MSTORE PUSH1 0x20 DUP3 ADD SWAP1 POP SWAP3 SWAP2 POP POP JUMP JUMPDEST PUSH32 0x4E6F546F6B656E7320746F2072656C6561736500000000000000000000000000 PUSH1 0x0 DUP3 ADD MSTORE POP JUMP JUMPDEST PUSH1 0x0 PUSH2 0x78A PUSH1 0x13 DUP4 PUSH2 0x743 JUMP JUMPDEST SWAP2 POP PUSH2 0x795 DUP3 PUSH2 0x754 JUMP JUMPDEST PUSH1 0x20 DUP3 ADD SWAP1 POP SWAP2 SWAP1 POP JUMP JUMPDEST PUSH1 0x0 PUSH1 0x20 DUP3 ADD SWAP1 POP DUP2 DUP2 SUB PUSH1 0x0 DUP4 ADD MSTORE PUSH2 0x7B9 DUP2 PUSH2 0x77D JUMP JUMPDEST SWAP1 POP SWAP2 SWAP1 POP JUMP JUMPDEST PUSH1 0x0 PUSH1 0x40 DUP3 ADD SWAP1 POP PUSH2 0x7D5 PUSH1 0x0 DUP4 ADD DUP6 PUSH2 0x508 JUMP JUMPDEST PUSH2 0x7E2 PUSH1 0x20 DUP4 ADD DUP5 PUSH2 0x4AC JUMP JUMPDEST SWAP4 SWAP3 POP POP POP JUMP JUMPDEST PUSH1 0x0 DUP2 ISZERO ISZERO SWAP1 POP SWAP2 SWAP1 POP JUMP JUMPDEST PUSH2 0x7FE DUP2 PUSH2 0x7E9 JUMP JUMPDEST DUP2 EQ PUSH2 0x809 JUMPI PUSH1 0x0 DUP1 REVERT JUMPDEST POP JUMP JUMPDEST PUSH1 0x0 DUP2 MLOAD SWAP1 POP PUSH2 0x81B DUP2 PUSH2 0x7F5 JUMP JUMPDEST SWAP3 SWAP2 POP POP JUMP JUMPDEST PUSH1 0x0 PUSH1 0x20 DUP3 DUP5 SUB SLT ISZERO PUSH2 0x837 JUMPI PUSH2 0x836 PUSH2 0x5AC JUMP JUMPDEST JUMPDEST PUSH1 0x0 PUSH2 0x845 DUP5 DUP3 DUP6 ADD PUSH2 0x80C JUMP JUMPDEST SWAP2 POP POP SWAP3 SWAP2 POP POP JUMP INVALID LOG2 PUSH5 0x6970667358 0x22 SLT KECCAK256 EXTCODESIZE 0xAC PUSH25 0x52D82A259FFFE7FCCB37FC07FEBBF882AE579566C831000077 0xE4 EXTCODESIZE DUP7 PUSH22 0x64736F6C634300081400330000000000000000000000 "},"methodIdentifiers":{"beneficiary()":"38af3eed","cliff()":"13d033c0","duration()":"0fb5a6b4","releasableTokens()":"72e2f44d","release()":"86d1a69f","released()":"96132521","start()":"be9a6555","token()":"fc0c546a","vestedTokens()":"0dfee936"}}}}}