{
  "_format": "hh-sol-artifact-1",
  "contractName": "VestingToken",
  "sourceName": "contracts/VestingToken.sol",
  "abi": [
    {
      "inputs": [
        {
          "internalType": "address",
          "name": "_token",
          "type": "address"
        },
        {
          "internalType": "address",
          "name": "_beneficiary",
          "type": "address"
        },
        {
          "internalType": "uint256",
          "name": "_start",
          "type": "uint256"
        },
        {
          "internalType": "uint256",
          "name": "_cliffDuration",
          "type": "uint256"
        },
        {
          "internalType": "uint256",
          "name": "_duration",
          "type": "uint256"
        }
      ],
      "stateMutability": "nonpayable",
      "type": "constructor"
    },
    {
      "anonymous": false,
      "inputs": [
        {
          "indexed": false,
          "internalType": "address",
          "name": "beneficiary",
          "type": "address"
        },
        {
          "indexed": false,
          "internalType": "uint256",
          "name": "Tokens",
          "type": "uint256"
        }
      ],
      "name": "Tokenreleased",
      "type": "event"
    },
    {
      "inputs": [],
      "name": "beneficiary",
      "outputs": [
        {
          "internalType": "address",
          "name": "",
          "type": "address"
        }
      ],
      "stateMutability": "view",
      "type": "function"
    },
    {
      "inputs": [],
      "name": "cliff",
      "outputs": [
        {
          "internalType": "uint256",
          "name": "",
          "type": "uint256"
        }
      ],
      "stateMutability": "view",
      "type": "function"
    },
    {
      "inputs": [],
      "name": "duration",
      "outputs": [
        {
          "internalType": "uint256",
          "name": "",
          "type": "uint256"
        }
      ],
      "stateMutability": "view",
      "type": "function"
    },
    {
      "inputs": [],
      "name": "releasableTokens",
      "outputs": [
        {
          "internalType": "uint256",
          "name": "",
          "type": "uint256"
        }
      ],
      "stateMutability": "view",
      "type": "function"
    },
    {
      "inputs": [],
      "name": "release",
      "outputs": [],
      "stateMutability": "nonpayable",
      "type": "function"
    },
    {
      "inputs": [],
      "name": "released",
      "outputs": [
        {
          "internalType": "uint256",
          "name": "",
          "type": "uint256"
        }
      ],
      "stateMutability": "view",
      "type": "function"
    },
    {
      "inputs": [],
      "name": "start",
      "outputs": [
        {
          "internalType": "uint256",
          "name": "",
          "type": "uint256"
        }
      ],
      "stateMutability": "view",
      "type": "function"
    },
    {
      "inputs": [],
      "name": "token",
      "outputs": [
        {
          "internalType": "contract IERC20",
          "name": "",
          "type": "address"
        }
      ],
      "stateMutability": "view",
      "type": "function"
    },
    {
      "inputs": [],
      "name": "vestedTokens",
      "outputs": [
        {
          "internalType": "uint256",
          "name": "",
          "type": "uint256"
        }
      ],
      "stateMutability": "view",
      "type": "function"
    }
  ],
  "bytecode": "0x60806040523480156200001157600080fd5b5060405162000c0538038062000c058339818101604052810190620000379190620001fc565b83600160006101000a81548173ffffffffffffffffffffffffffffffffffffffff021916908373ffffffffffffffffffffffffffffffffffffffff160217905550600073ffffffffffffffffffffffffffffffffffffffff168473ffffffffffffffffffffffffffffffffffffffff1603620000ea576040517f08c379a0000000000000000000000000000000000000000000000000000000008152600401620000e190620002e5565b60405180910390fd5b846000806101000a81548173ffffffffffffffffffffffffffffffffffffffff021916908373ffffffffffffffffffffffffffffffffffffffff1602179055508260028190555081836200013f919062000336565b60038190555080600481905550505050505062000371565b600080fd5b600073ffffffffffffffffffffffffffffffffffffffff82169050919050565b600062000189826200015c565b9050919050565b6200019b816200017c565b8114620001a757600080fd5b50565b600081519050620001bb8162000190565b92915050565b6000819050919050565b620001d681620001c1565b8114620001e257600080fd5b50565b600081519050620001f681620001cb565b92915050565b600080600080600060a086880312156200021b576200021a62000157565b5b60006200022b88828901620001aa565b95505060206200023e88828901620001aa565b94505060406200025188828901620001e5565b93505060606200026488828901620001e5565b92505060806200027788828901620001e5565b9150509295509295909350565b600082825260208201905092915050565b7f496e76616c696420616464726573730000000000000000000000000000000000600082015250565b6000620002cd600f8362000284565b9150620002da8262000295565b602082019050919050565b600060208201905081810360008301526200030081620002be565b9050919050565b7f4e487b7100000000000000000000000000000000000000000000000000000000600052601160045260246000fd5b60006200034382620001c1565b91506200035083620001c1565b92508282019050808211156200036b576200036a62000307565b5b92915050565b61088480620003816000396000f3fe608060405234801561001057600080fd5b50600436106100935760003560e01c806372e2f44d1161006657806372e2f44d1461011057806386d1a69f1461012e5780639613252114610138578063be9a655514610156578063fc0c546a1461017457610093565b80630dfee936146100985780630fb5a6b4146100b657806313d033c0146100d457806338af3eed146100f2575b600080fd5b6100a0610192565b6040516100ad91906104bb565b60405180910390f35b6100be61029d565b6040516100cb91906104bb565b60405180910390f35b6100dc6102a3565b6040516100e991906104bb565b60405180910390f35b6100fa6102a9565b6040516101079190610517565b60405180910390f35b6101186102cf565b60405161012591906104bb565b60405180910390f35b6101366102eb565b005b610140610472565b60405161014d91906104bb565b60405180910390f35b61015e610478565b60405161016b91906104bb565b60405180910390f35b61017c61047e565b6040516101899190610591565b60405180910390f35b60008060055460008054906101000a900473ffffffffffffffffffffffffffffffffffffffff1673ffffffffffffffffffffffffffffffffffffffff166370a08231306040518263ffffffff1660e01b81526004016101f19190610517565b602060405180830381865afa15801561020e573d6000803e3d6000fd5b505050506040513d601f19601f8201168201806040525081019061023291906105dd565b61023c9190610639565b9050600042101561025157600091505061029a565b6004546002546102619190610639565b4210610270578091505061029a565b60045460025442610281919061066d565b8261028c91906106a1565b6102969190610712565b9150505b90565b60045481565b60035481565b600160009054906101000a900473ffffffffffffffffffffffffffffffffffffffff1681565b60006005546102dc610192565b6102e6919061066d565b905090565b60006102f56102cf565b90506000811161033a576040517f08c379a0000000000000000000000000000000000000000000000000000000008152600401610331906107a0565b60405180910390fd5b806005600082825461034c9190610639565b9250508190555060008054906101000a900473ffffffffffffffffffffffffffffffffffffffff1673ffffffffffffffffffffffffffffffffffffffff1663a9059cbb600160009054906101000a900473ffffffffffffffffffffffffffffffffffffffff16836040518363ffffffff1660e01b81526004016103d09291906107c0565b6020604051808303816000875af11580156103ef573d6000803e3d6000fd5b505050506040513d601f19601f820116820180604052508101906104139190610821565b507f0eab689afda6ceec5c4bb9b266590008fc5bc0045440a89b95952688c58337a7600160009054906101000a900473ffffffffffffffffffffffffffffffffffffffff16826040516104679291906107c0565b60405180910390a150565b60055481565b60025481565b60008054906101000a900473ffffffffffffffffffffffffffffffffffffffff1681565b6000819050919050565b6104b5816104a2565b82525050565b60006020820190506104d060008301846104ac565b92915050565b600073ffffffffffffffffffffffffffffffffffffffff82169050919050565b6000610501826104d6565b9050919050565b610511816104f6565b82525050565b600060208201905061052c6000830184610508565b92915050565b6000819050919050565b600061055761055261054d846104d6565b610532565b6104d6565b9050919050565b60006105698261053c565b9050919050565b600061057b8261055e565b9050919050565b61058b81610570565b82525050565b60006020820190506105a66000830184610582565b92915050565b600080fd5b6105ba816104a2565b81146105c557600080fd5b50565b6000815190506105d7816105b1565b92915050565b6000602082840312156105f3576105f26105ac565b5b6000610601848285016105c8565b91505092915050565b7f4e487b7100000000000000000000000000000000000000000000000000000000600052601160045260246000fd5b6000610644826104a2565b915061064f836104a2565b92508282019050808211156106675761066661060a565b5b92915050565b6000610678826104a2565b9150610683836104a2565b925082820390508181111561069b5761069a61060a565b5b92915050565b60006106ac826104a2565b91506106b7836104a2565b92508282026106c5816104a2565b915082820484148315176106dc576106db61060a565b5b5092915050565b7f4e487b7100000000000000000000000000000000000000000000000000000000600052601260045260246000fd5b600061071d826104a2565b9150610728836104a2565b925082610738576107376106e3565b5b828204905092915050565b600082825260208201905092915050565b7f4e6f546f6b656e7320746f2072656c6561736500000000000000000000000000600082015250565b600061078a601383610743565b915061079582610754565b602082019050919050565b600060208201905081810360008301526107b98161077d565b9050919050565b60006040820190506107d56000830185610508565b6107e260208301846104ac565b9392505050565b60008115159050919050565b6107fe816107e9565b811461080957600080fd5b50565b60008151905061081b816107f5565b92915050565b600060208284031215610837576108366105ac565b5b60006108458482850161080c565b9150509291505056fea26469706673582212203bac7852d82a259fffe7fccb37fc07febbf882ae579566c831000077e43b867564736f6c63430008140033",
  "linkReferences": {},
  "deployedLinkReferences": {}
}